:02000000C02915
:10000800FF00030E83010317D3000A08D4008A01F6
:1000180070080313A2007C08A1007D08A0000B1C37
:1000280016280B10003083166306031D1D280030A8
:100038006206031D6C288312061C36283430FC0027
:10004800F130FD00FD0B2628FC0B262800000000DF
:10005800061C35288615061601308316E000003088
:10006800E10036288312861C66283430FC00F13003
:10007800FD00FD0B3D28FC0B3D2800000000861C00
:100088006528003083166106031D4C280130600680
:10009800031D55288312861106128316E001E1011B
:1000A800652800306106031D5B2800306006031DCB
:1000B800652883128615061601308316E000003085
:1000C800E100662883160130E2000030E3006E2864
:1000D800E201E30183122208F0002108FC00200855
:1000E800FD00031754088A00530E8300FF0E7F0E8D
:0200F8000900FD
:0E00FA00213083120313FD00FD0B8128080046
:06010800000000000800E9
:10010E000F3083120313FC004730FD00FD0B8D28CA
:0A011E00FC0B8D2800000000080013
:1001280083120317DA1B9B28031387119D280313D7
:10013800871503175A1BA32803130711A5280313B0
:1001480007150317DA1AAB2803138710AD28031312
:10015800871403175A1AB32803130710B528031373
:10016800071403175218BB2803130716BD280313D7
:1001780007128716842087120317DA19C628031373
:100188008711C8280313871503175A19CE28031394
:100198000711D028031307150317DA18D6280313F5
:1001A8008710D8280313871403175A18DE28031357
:1001B8000710E0280313071403175218E62803133F
:1001C8000716E828031307128716842087120317D7
:0C01D800521CF0288720F1287D20080030
:1001E4008312031752105908DA009420031752148B
:0201F400080001
:0E01F600831603136F088A006E08820008004B
:100204008316031398169030831298008316871769
:10021400071383128C1E11291A08F0000B290800F9
:100224002429803083120317D5003729C030D50024
:1002340037299430D5003729D430D5003729803078
:10024400D5003729831203175508013A03191329D6
:100254005508023A031918295508033A03191B29AA
:100264005508043A03191E2921295603F00055089C
:10027400F0077008D5007008DA00942003175210B4
:10028400D801580857078400000803195129580851
:10029400570784000008D900F220D80A43295214D1
:0202A400080050
:0E02A6000030831203138C1A0130F0000800A0
:1002B400831203131A08F100981C622918121816E5
:0602C4007108F0000800C3
:1002CA00FB208A110A128000840AEE0A0319EF0A37
:0802DA00F003031D6529080073
:1002E200831603138712071207108710071187114D
:1002F20083128712071287110711871007108720B0
:100302008720872087140714871684208712872066
:1003120087168420871287208716842087128720D9
:100322000710871684208712872087168420871259
:100332008710871587168420871287208711071454
:100342008716842087120710871684208712872039
:100352008716842087120714871684208712872025
:10036200071087168420871287150715871407142C
:0E037200871684208712872003175214080074
:100380000E243330831603139900181502217121AE
:10039000803083160313810088308B00C3308600C1
:1003A0008312861006118601831688018312880144
:1003B00008128816081388170C300317DA009420E7
:1003C00053217008013A031D262B01300317D50075
:1003D0000130D6006130D70012215A21700803176E
:1003E000D1007008313A031D222A031308180D2A80
:1003F000081401300317DA00942001300317D500E8
:100400000130D600A030D70012210230D5000130D3
:10041000D6006630D7001221212A03170130DA00F6
:100420009420081001300317D5000130D6005C304D
:10043000D70012210230D5000130D6003230D7006B
:100440001221252B5108323A031D532A0313881811
:100450003E2A881401300317DA0094200130031774
:10046000D5000130D6002D30D70012210230D50042
:100470000130D6002330D7001221522A0317013051
:10048000DA009420881001300317D5000130D6001F
:100490003D30D70012210230D5000130D600513056
:1004A000D7001221252B5108333A031D842A031348
:1004B00008196F2A081501300317DA00942001305B
:1004C0000317D5000130D6004C30D700122102307E
:1004D000D5000130D6004230D7001221832A0317FD
:1004E0000130DA009420081101300317D5000130E3
:1004F000D600A530D70012210230D5000130D60039
:100500001A30D7001221252B5108343A031DB52A81
:1005100003138819A02A881501300317DA009420E4
:1005200001300317D5000130D600E930D700122181
:100530000230D5000130D6001030D7001221B42A85
:1005400003170130DA009420881101300317D50019
:100550000130D6002530D70012210230D5000130FD
:10056000D6004630D7001221252B5108363A031DFC
:10057000DA2A0313081BCB2A081788130130031744
:10058000DA00942001300317D5000130D60038304E
:10059000D7001221D92A03170130DA00942008135A
:1005A000881701300317D5000130D6002A30D70054
:1005B0001221252B5108353A031D0D2B0313081A60
:1005C000F72A0816881201300317DA009420013048
:1005D0000317D5000130D600E430D70012210230D5
:1005E000D5000130D600BF30D70012210C2B0317E5
:1005F0000130DA0094200812881601300317D50064
:100600000130D600BA30D70012210230D5000130B7
:10061000D600AA30D7001221252B5108373A031DE6
:10062000252B031388018611061288168817881156
:10063000081201300317DA00942002300317D500A6
:100640000130D600CF30D70012212B2B5321700858
:0A065000003A031D2B2BE0292C2B90
:10081C00233084004D3083120313F00032308316E2
:10082C00EE000330EF006521A030840049308312C4
:10083C00F0007F308316EE000330EF00652110309E
:10084C00831784000A308312F000FF308316EE0009
:10085C000330EF0065218313E930840005308312E7
:10086C00F00009308316EE000430EF0065211A30D9
:10087C008317840037308312F000C8308316EE00E3
:0A088C000330EF006521831308001C
:1006640072346F346F346D342034323420346F3448
:040674006E340034AC
:0A06780067346F346F3464340034CB
:1006820072346F346F346D342034313420346F342B
:06069200663466340034FA
:0A06980067346F346F3464340034AB
:1006A20072346F346F346D342034333420346F3409
:0406B2006E3400346E
:0A06B60067346F346F34643400348D
:1006C00072346F346F346D342034323420346F34EC
:0606D000663466340034BC
:0A06D60067346F346F34643400346D
:0A06E00067346F346F346434003463
:1006EA0072346F346F346D342034313420346F34C3
:0406FA006E34003426
:0A06FE0067346F346F346434003445
:0A07080067346F346F34643400343A
:100712006D34613469346E3444346F346F347234FE
:10072200203443346C346F347334653464340034AD
:0A07320067346F346F346434003410
:10073C006D34613469346E3444346F346F347234D4
:10074C0020344F34703465346E3465346434003482
:10075C00533479347334743465346D3420347234D6
:10076C006534733474346134723474346534643481
:02077C00003447
:04077E00003400340F
:04078200003400340B
:0A07860067346F346F3464340034BC
:1007900072346F346F346D342034333420346F341A
:0607A000663466340034EB
:0A07A60067346F346F34643400349C
:1007B00067346134723461346734653420344334CF
:0C07C0006C346F347334653464340034DE
:1007CC0067346134723461346734653420344F34A7
:0C07DC00703465346E34653464340034CD
:1007E80072346F346F346D342034343420346F34C1
:0607F80066346634003493
:1007FE0072346F346F346D342034343420346F34AB
:04080E006E34003410
:0A08120067346F346F34643400342F
:02400E004A2F37
:00000001FF
